:100000000A128A1112280800FE000308F1000408F1
:10001000F2000A08F300831203137F08F4000A12A7
:100020008A156F2B0A128A15032A00308A000408E9
:10003000840A820700346C34753478343A342034BE
:10004000003483120313A5010314A50D00300A1216
:100050008A15A6220A128A1101300A128A1559221B
:100060000A128A1183120313A5010314A50D063089
:100070000A128A15A6220A128A118312031368082B
:100080000A128A15C1230A128A11831203136D08FA
:100090000A128A15C1230A128A11831203136108F6
:1000A0000A128A15C1230A128A11831203136508E2
:1000B0000A128A15C1230A128A112E300A128A15D1
:1000C000C1230A128A118312031362080A128A15C5
:1000D000C1230A128A118312031366080A128A15B1
:1000E000C1230A128A118312031366080A128A15A1
:1000F000C1230A128A112C3083120313A00001308D
:10010000A1000A128A157E220A128A11831603138D
:100110003C0883120313C200831603133D088312A5
:100120000313C300831603133E0883120313C40092
:100130000030BF008030C0003F30C1000A128A1179
:10014000DB260A128A11831203133F08AB00400812
:10015000AC004108AD000A128A1598260A128A11CD
:10016000831203132C08DD01DD072B08DC01DC07FB
:10017000E830A7000330A8005D08AA01AA075C08C0
:10018000A901A9070A128A1587240A128A11831263
:1001900003132708303E83160313E7006708831212
:1001A0000313E8006430A7000030A8005D08A30135
:1001B000A3075C08A201A207E830A0000330A10059
:1001C0000A128A151B240A128A11831203132108AA
:1001D000AA01AA072008A901A9070A128A158724DB
:1001E0000A128A11831203132708303E8316031361
:1001F000E700670883120313ED000A30A700003000
:10020000A8005D08A301A3075C08A201A207E830CB
:10021000A0000330A1000A128A151B240A128A11B9
:10022000831203132108A301A3072008A201A20738
:100230006430A0000030A1000A128A151B240A12A3
:100240008A11831203132108AA01AA072008A90111
:10025000A9070A128A1587240A128A118312031326
:100260002708303E83160313E70067088312031341
:10027000E1005D08A301A3075C08A201A207E83022
:10028000A0000330A1000A128A151B240A128A1149
:10029000831203132108A301A3072008A201A207C8
:1002A0006430A0000030A1000A128A151B240A1233
:1002B0008A1183120313210883160313E901E90746
:1002C00083120313200883160313E801E8070A309A
:1002D00083120313A0000030A100831603136908E2
:1002E00083120313A301A307831603136808831261
:1002F0000313A201A2070A128A151B240A128A11EB
:10030000831203132008303E83160313E7006708A7
:1003100083120313E500003083160313D500003069
:10032000D6005608803AFF0080307F02031D9A29CC
:1003300002305502031C9D299E29A029632A632AA5
:10034000831203135D08BA01BA075C08B901B90743
:100350000A128A15D4220A128A1183120313390849
:10036000A8003A08A9003B08AA000A128A15C5216C
:100370000A128A11831203132808C2002908C30035
:100380002A08C400831603133C0883120313BF001A
:10039000831603133D0883120313C000831603134F
:1003A0003E0883120313C1000A128A1164220A1242
:1003B0008A11831203133F08CF004008D000410880
:1003C000D1000030CC002030CD004130CE000A12E8
:1003D0008A11ED250A128A11831203134C08AB000F
:1003E0004D08AC004E08AD000A128A1598260A1274
:1003F0008A11831203132C0883160313C001C0074C
:10040000831203132B0883160313BF01BF070A309F
:1004100083120313A0000030A100831603134008C9
:1004200083120313A301A307831603133F08831248
:100430000313A201A2070A128A151B240A128A11A9
:10044000831203132008303E83160313E700670866
:1004500083120313E2000A30A7000030A8008316BD
:100460000313400883120313AA01AA078316031378
:100470003F0883120313A901A9070A128A158724CA
:100480000A128A11831203132708303E83160313BE
:10049000E700670883120313E60001308316031395
:1004A000D5070318D60A0030D6075608803AFF0051
:1004B00080307F02031D5E2A02305502031C612A30
:1004C000622AA029632A0800831203133F08C5008B
:1004D0004008C6004108C7000310460D470DC8007C
:1004E0004808CB004208C5004308C6004408C700BE
:1004F0000310460D470DC8004808CA004B08031DED
:10050000822A932A4A084B020318872A882A9B2AA0
:100510004B03FF3A4A07C50019304502031C912AD4
:10052000922A9B2A932A4208BF004308C00044082D
:10053000C100AD2BAD2B4A08031D9F2AAF2A4B08E3
:100540004A020318A42AA52AB02A4A03FF3A4B07F5
:10055000C50019304502031CAE2AAF2AB02AAD2BC4
:100560000630C5004508C900C11FB72AB82AB92AF4
:10057000C917C41FBC2ABD2ABE2A4917C017FF309D
:10058000BF05FF30C0050030C105C317FF30C205ED
:10059000FF30C3050030C4054A084B020318D12AB6
:1005A000D22A032BD32A01300310C20DC30DC40D70
:1005B000FF3E031DD42A0130CA024A084B06031924
:1005C000E22AE32AFB2A0130C90249080739031D40
:1005D000EA2AEB2AD32AFB2AFB2AFB2A0130031042
:1005E000C10CC00CBF0CFF3E031DEF2A0130C5003B
:1005F0004508CB07FB2A4B084A06031D002B012B9D
:10060000EE2A3A2B3A2B4B084A020318082B092BE7
:100610003A2B0A2B01300310BF0DC00DC10DFF3E58
:10062000031D0B2B0130CB024A084B060319192B73
:100630001A2B322B0130C90249080739031D212B1F
:10064000222B0A2B322B322B322B01300310C40CFD
:10065000C30CC20CFF3E031D262B0130C50045080C
:10066000CA07322B4B084A06031D372B382B252B84
:100670003A2B3A2BC91F3D2B3E2B4F2BFF30BF0689
:10068000FF30C006FF30C1060130BF07003003183D
:100690000130C007003003180130C1074F2B491F3C
:1006A000522B532B642BFF30C206FF30C306FF30A2
:1006B000C4060130C207003003180130C307003000
:1006C00003180130C407642B0310003003180130F5
:1006D000C9003F08C207400803110318400A031964
:1006E000722BC307410803110318410A0319792B20
:1006F000C407C41F7C2B7D2B912BFF30C206FF301B
:10070000C306FF30C4060130C207003003180130B1
:10071000C307003003180130C407C9010314C90D11
:10072000912B4208A0004308A1004408A2004B08F6
:10073000C5004508A3004908C6004608A4000A12DF
:100740008A1502250A128A11831203132008BF009A
:100750002108C0002208C100AD2B08008316031336
:100760003C0883120313CF00831603133D08831242
:100770000313D000831603133E0883120313D10022
:100780000030CC002030CD004130CE000A128A115A
:10079000ED250A128A11831203134C08AB004D0891
:1007A000AC004E08AD000A128A1598260A128A116A
:1007B000831203132C08DF01DF072B08DE01DE079D
:1007C000E830A7000330A8005F08AA01AA075E0866
:1007D000A901A9070A128A1587240A128A1183120D
:1007E0000313270883160313E70067088312031314
:1007F000EA006430A7000030A8005F08A301A30747
:100800005E08A201A207E830A0000330A1000A128E
:100810008A151B240A128A11831203132108AA01C4
:10082000AA072008A901A9070A128A1587240A1213
:100830008A1183120313270883160313E70067083E
:1008400083120313EF000A30A7000030A8005F08EE
:10085000A301A3075E08A201A207E830A0000330AD
:10086000A1000A128A151B240A128A11831203138B
:100870002108A301A3072008A201A2076430A00059
:100880000030A1000A128A151B240A128A11831251
:1008900003132108AA01AA072008A901A9070A121F
:1008A0008A1587240A128A118312031327088316D4
:1008B0000313E700670883120313E4005F08A30132
:1008C000A3075E08A201A207E830A0000330A10040
:1008D0000A128A151B240A128A1183120313210893
:1008E000A301A3072008A201A2076430A0000030E2
:1008F000A1000A128A151B240A128A1183120313FB
:10090000210883160313E901E90783120313200862
:1009100083160313E801E8070A3083120313A000CB
:100920000030A10083160313690883120313A30187
:10093000A30783160313680883120313A201A207F7
:100940000A128A151B240A128A1183120313200823
:1009500083160313E700670883120313E7006A088E
:100960000A128A15B9210A128A11831203136F0819
:100970000A128A15B9210A128A1183120313640814
:100980000A128A15B9210A128A1183120313670801
:100990000A128A15B9210A128A11C8308312031368
:1009A000A0000030A1000A128A157E220A128A11C4
:1009B0000800831603138811881008110812881282
:1009C00008138813831203138811881008118230CA
:1009D000A600DD30A500A50BEB2CA60BEB2CF02C14
:1009E000303083120313A5002508A00000300A123E
:1009F0008A153E270A128A11413083120313A6007A
:100A0000EE30A500A50B022DA60B022D64003030A0
:100A100083120313A5002508A00000300A128A15CE
:100A20003E270A128A11413083120313A600EE30CA
:100A3000A500A50B192DA60B192D640032308312C9
:100A40000313A5002508A00000300A128A153E27CE
:100A50000A128A11823083120313A600DD30A5002A
:100A6000A50B302DA60B302D352D823083120313AC
:100A7000A600DD30A500A50B3B2DA60B3B2D402D80
:100A8000823083120313A600DD30A500A50B462D8E
:100A9000A60B462D4B2D4D2D4D2D0A128A150423E4
:100AA0000A128A110038031D562D572D4D2D582D31
:100AB000283083120313A5002508A00000300A1275
:100AC0008A153E270A128A11662D662D0A128A158A
:100AD00004230A128A110038031D6F2D702D662D14
:100AE000712D083083120313A5002508A0000030E3
:100AF0000A128A153E270A128A117F2D7F2D0A12AB
:100B00008A1504230A128A110038031D882D892DA5
:100B10007F2D8A2D0C3083120313A5002508A00019
:100B200000300A128A153E270A128A11982D982D34
:100B30000A128A1504230A128A110038031DA12DF6
:100B4000A22D982DA32D83120313A0010314A00D31
:100B500000300A128A153E270A128A11B02DB02DD4
:100B60000A128A1504230A128A110038031DB92DAE
:100B7000BA2DB02DBB2D043083120313A500250818
:100B8000A00000300A128A153E270A128A11C92DC8
:100B9000C92D0A128A1504230A128A110038031D6E
:100BA000D22DD32DC92DD42D83120313A0010314EC
:100BB000A00D00300A128A153E270A128A11E12D73
:100BC000E12D0A128A1504230A128A110038031D26
:100BD000EA2DEB2DE12DEC2D0800831203134C08B8
:100BE000D2004D08D3004E08D4000310530D540D0D
:100BF000D5005508D600D608031DFF2D002E082E5F
:100C00000030CC000030CD000030CE00DA2EDA2EDD
:100C10004F08D2005008D3005108D4000310530DE0
:100C2000540DD5005508DB00DB08031D182E192EC6
:100C3000212E0030CC000030CD000030CE00DA2E66
:100C4000DA2E5B087B3ED2005208D6074C08D20051
:100C50004D08D3004E08D40010300310D40CD30C30
:100C6000D20CFF3E031D2D2E5208D5005508DB0087
:100C70004F08D2005008D3005108D40010300310A0
:100C8000D40CD30CD20CFF3E031D3F2E5208D500CE
:100C90005508DB068030D2005208DB05CD17D0178F
:100CA000FF30CF05FF30D0050030D1050030D70030
:100CB0000030D8000030D9000730D2005208DA00E6
:100CC000612E4C1C642E652E762E4F08D7075008D7
:100CD00003110318500A03196E2ED8075108031187
:100CE0000318510A0319752ED907762E0130031007
:100CF000CE0CCD0CCC0CFF3E031D772E0130031023
:100D0000CF0DD00DD10DFF3E031D7F2E0130DA0235
:100D1000031D8B2E8C2E612E8D2E0930D200520891
:100D2000DA00922E4C1C952E962EA72E4F08D70730
:100D3000500803110318500A03199F2ED8075108B1
:100D400003110318510A0319A62ED907A72E013043
:100D50000310CE0CCD0CCC0CFF3E031DA82E013091
:100D60000310D90CD80CD70CFF3E031DB02E013058
:100D7000DA02031DBC2EBD2E922EBE2E5708A000F7
:100D80005808A1005908A2005608D2005208A30032
:100D90005B08D3005308A4000A128A1502250A1220
:100DA0008A11831203132008CC002108CD002208E9
:100DB000CE00DA2E0800831203134208C500430850
:100DC000C6004408C7000310460D470DC800480878
:100DD000CD00CD08031DED2EEE2EF62E0030BF0007
:100DE0000030C0000030C100A22FA22F3F08C50074
:100DF0004008C6004108C7000310460D470DC80053
:100E00004808CE00CE08031D062F072F0F2F0030F5
:100E1000BF000030C0000030C100A22FA22F003060
:100E2000CA000030CB000030CC0089304E07C5002E
:100E30004508CD024208C5004308C6004408C70063
:100E400010300310C70CC60CC50CFF3E031D212F2C
:100E50004508C8004808CE003F08C5004008C60045
:100E60004108C70010300310C70CC60CC50CFF3E6C
:100E7000031D332F4508C8004808CE068030C50042
:100E80004508CE05C317FF30C205FF30C30500304B
:100E9000C405C017FF30BF05FF30C0050030C105D5
:100EA0001830C5004508C900552F01300310CA0D80
:100EB000CB0DCC0DFF3E031D562F41084402031DF0
:100EC000672F40084302031D672F3F084202031C9F
:100ED0006A2F6B2F772F3F08C2024008031C400F78
:100EE000C3024108031C410AC4024A14772F01308F
:100EF0000310C20DC30DC40DFF3E031D782F01303A
:100F0000C902031D842F852F552F862F4A08A00064
:100F10004B08A1004C08A2004D08C5004508A300DD
:100F20004E08C6004608A4000A128A1502250A12B5
:100F30008A11831203132008BF002108C000220871
:100F4000C100A22F080083120313A1000310003078
:100F500003180130A2008316031307160310003094
:100F60000318013083120313A30008302302031C6B
:100F7000BA2FBB2FBD2FE62FE62F0310A20DC02FD7
:100F800083160313871583120313871DC82FC92FD8
:100F9000C02FCA2F0A128A1103200A128A11831243
:100FA0000313071ED42FD52FD62F22148316031315
:100FB0008711013083120313A0002008A307083013
:100FC0002302031CE42FE52FBD2FE62F2108031D6C
:100FD000EA2FEE2F831603130712F12F8316031344
:100FE000071687150A128A1103200A128A1183161E
:100FF000031387110716831203132208FF2F08001B
:1013620064008001840A0406031900340406B229C9
:1013720083120313A00020089900BF290C1EC22962
:10138200C329BF29C4290800831203132A08290488
:1013920028040319CD29CE29D1298030AA06D129C2
:1013A200D22908000A128A1538220A128A154630F2
:1013B2000A128A1537230A128A1510300A128A1560
:1013C20037230A128A150A128A15EA210A128A1585
:1013D20008008316031307120A128A1103200A1245
:1013E2008A158316031387150A128A1103200A121B
:1013F2008A158316031307160A128A1103200A128A
:101402008A150800F901F501F601F701F8018313C5
:101412005C30840070300A128A15B1210A128A15D2
:10142200A0308400E7300A128A15B1210A128A1507
:1014320083010A128A15062E83120313A1000310D8
:10144200003003180130A0007F30210203182A2A3D
:101452002B2A352A20302102031C302A312A352A30
:10146200A0010314A00D352A200C372A0800831688
:10147200031307160A128A1103200A128A15831609
:10148200031387150A128A1103200A128A1583167A
:10149200031307120A128A1103200A128A158316ED
:1014A200031387110A128A1103200A128A150800EF
:1014B20083120313AC00702A2C0884000A128A11CA
:1014C20015200A128A150A128A15C1230A128A15D0
:1014D200013083120313AB002B08AC07702A2C08CF
:1014E20084000A128A1115200A128A150038031D77
:1014F2007B2A7C2A5D2A7D2A08000030831203138E
:10150200A3000030A400962AF93083120313A2002C
:101512006400A20B892A8D2A64000130831203130E
:10152200A3070318A40A0030A4072408803AA200E3
:101532002108803A2202031DA02A20082302031C4C
:10154200A32AA42A852AA52A080083120313A70026
:101552002508031DAD2AB22A4030A6002608A8009D
:10156200B72A0310003003180130A8002708A6008C
:101572002608A80728088038A6002608A000003000
:101582000A128A153E270A128A15C82AC82A0A127E
:101592008A1504230A128A150038031DD12AD22A79
:1015A200C82AD32A0800031000300318013083121E
:1015B2000313BE00BA1FDE2ADF2AE82AB909BA09D4
:1015C200B90A0319BA0ABE010314BE0DE82A390882
:1015D200A0003A08A100A2018E30BC003C08A30082
:1015E2003E08BD003D08A4000A128A1502250A120F
:1015F2008A15831203132008B9002108BA002208B1
:10160200BB00032B0800831603130816881608175D
:10161200881783120313081588100630A000A00B48
:10162200102B64008312031388150630A000A00B50
:10163200182B6400003083120313881B0130A000B2
:101642002008A10088110630A000A00B262B640000
:101652008312031388150630A000A00B2E2B640002
:101662008312031388112108362B080083120313F7
:10167200A1000830A0002008A200562BA11F422B77
:10168200432B472B8316031307164A2B8316031388
:1016920007128715031083120313A10D8316031378
:1016A2008711013083120313A202A208031D5A2BD1
:1016B2005B2B3F2B83160313071687150A128A1119
:1016C20003200A128A15791083120313071E6A2B4C
:1016D20079148316031387116E2B080083160313E4
:1016E2008C1E742B752B942B831203138C1E7A2B56
:1016F2007B2B942B1A08F0007808A03E8400700817
:10170200831380000130F0007008F8077808073A68
:10171200031D8C2B8D2B942B0310003003180130EA
:10172200F800942B942B0B1D972B982BB52B8B1E0B
:101732009B2B9C2BB52B0B11833083128100013024
:1017420083160313C5070318C60A0030C607FA300A
:1017520045064604031DAE2BAF2BB52B0030C5004A
:101762000030C600B52BB52B74088312FF00730836
:101772008A007208840071088300FE0E7E0E090042
:1017820083120313AA00102CA0010314A00D003031
:101792000A128A153E270A128A15D02BD02B0A125A
:1017A2008A1504230A128A150038031DD92BDA2B55
:1017B200D02B1A2C1A2C83120313A5010314A50D86
:1017C20000300A128A15A6220A128A151A2C8312CE
:1017D20003132A080A128A151D220A128A15031CEB
:1017E200F32BF42B1A2C831203132A08A9002908BD
:1017F200A00001300A128A153E270A128A15022C0D
:10180200022C0A128A1504230A128A150038031DB3
:101812000B2C0C2C022C1A2C1A2C1A2C1A2C83127C
:1018220003132A080A3A0319DC2B063A0319C52BBB
:10183200E82B080003100030031801308312031351
:10184200A600A31F252C262C2F2CA209A309A20A2D
:101852000319A30AA6010314A60D2F2CA11F322CD3
:10186200332C392CA009A109A00A0319A10A392C89
:101872002108200403193E2C3F2C752CA5010314CA
:10188200A50D4F2C01300310A00DA10DFF3E031D2D
:10189200442C0130A4002408A5074F2CA11F522C70
:1018A200532C432C552C552C21082302031D5B2C51
:1018B20020082202031C5E2C5F2C662C2008A20248
:1018C2002108031CA303A302662C01300310A10C00
:1018D200A00CFF3E031D672C0130A502031D722CD4
:1018E200732C552C752C752C2608031D792C7F2CF6
:1018F200A209A309A20A0319A30A7F2C2308A101A2
:10190200A1072208A001A007862C080003100030BE
:101912000318013083120313AD00A81F912C922CDF
:101922009B2CA709A809A70A0319A80AAD01031449
:10193200AD0D9B2CAA1F9E2C9F2CA82CA909AA098D
:10194200A90A0319AA0A0130AB002B08AD06003020
:10195200AE000030AF00280827040319B12CB22CC6
:10196200F02CAC010314AC0DC22C01300310A70DF6
:10197200A80DFF3E031DB72C0130AB002B08AC07AE
:10198200C22CA81FC52CC62CB62CC82CC82C0130C2
:101992000310AE0DAF0DFF3E031DC92C28082A020D
:1019A200031DD52C27082902031CD82CD92CE12C85
:1019B2002708A9022808031CAA03AA022E14E12C54
:1019C20001300310A80CA70CFF3E031DE22C0130CE
:1019D200AC02031DED2CEE2CC82CF02CF02C2D08A3
:1019E200031DF42CFA2CAE09AF09AE0A0319AF0A93
:1019F200FA2C2F08A801A8072E08A701A707012D76
:101A02000800831203132308031D082D102D22083A
:101A120021042004031D0E2D0F2D262D102D003024
:101A2200A0000030A1000030A2007E2D7E2D262DC8
:101A32000130A5002508A30701300310A20CA10C58
:101A4200A00CFF3E031D1E2D262DFE302205031D78
:101A52002B2D2C2D192D442D442D0130A5002508A8
:101A6200A3070130A007003003180130A10700309E
:101A720003180130A20701300310A20CA10CA00C24
:101A8200FF3E031D3D2DFF302205031D492D4A2D2A
:101A92002E2D572D572D0130A30201300310A00D1A
:101AA200A10DA20DFF3E031D4F2D572DA11F5A2D33
:101AB2005B2D4C2D23185E2D5F2D652DFF30A0056B
:101AC2007F30A105FF30A2050310A30C2308A50057
:101AD200A601A70110300310A50DA60DA70DFF3E0C
:101AE200031D6C2D2508A0042608A1042708A204C2
:101AF2002408031D7D2D7E2DA2170800031000303F
:101B02000318013083120313D100031000300318AD
:101B12000130D2000A128A1538220A128A15473079
:101B22000A128A1537230A128A1501300A128A11FB
:101B3200A3270A128A1583120313CF004F08D2007B
:101B420000300A128A11A3270A128A15831203137C
:101B5200CF004F08D1000A128A15EA210A128A150B
:101B6200831203135208CF00D0010830FF00031084
:101B7200CF0DD00DFF0BB82D51084F07831603135D
:101B8200E10000300318013083120313500783165B
:101B92000313E2009A3083120313BF009930C0008E
:101BA2003F30C10083160313620883120313BA0184
:101BB200BA0783160313610883120313B901B90725
:101BC2000A128A15D4220A128A15831203133908BB
:101BD200C2003A08C3003B08C4000A128A11DB267D
:101BE2000A128A15831203133F0883160313BC00DB
:101BF20083120313400883160313BD0083120313D9
:101C0200410883160313BE000800831603178801D8
:101C120089010A128A11D9240A128A15831603131A
:101C22009A018316031787158130831603139900CF
:101C32002030980090308312031398008316031308
:101C42001812831203131A0883160313EA006A0890
:101C5200E5008C160B178B1783120313870183166B
:101C62000313871007110C308312031397000130FE
:101C720092001215FF308316031392008316031786
:101C82000815831603139F121F12831203139F1743
:101C92009F1B4C2E502E831203131F17532E831299
:101CA20003131F13831603139F17831203139F1229
:101CB2001F129F151F111F14831603138112811106
:101CC2000116011101108114833083120313810064
:101CD2008B16E830A0000330A1000A128A157E227A
:101CE2000A128A150A128A15D3210A128A15792E26
:101CF200C83083120313A0000030A1000A128A1513
:101D02007E220A128A150A128A157F250A128A155C
:101D12000A128A1121200A128A150A128A11AE2386
:101D22000A128A15792E792E0A128A111228831222
:101D320003132B08AF002C08B0002D08B1000310CC
:101D4200300D310DB2003208B800B808031DAA2EBA
:101D5200AB2EB52E0030AE000030AD000030AC002E
:101D62000030AB003D2F3D2F2B08AF002C08B000F8
:101D72002D08B10017300310B10CB00CAF0CFF3EB0
:101D8200031DBC2E2F08B2003208B300AC17FF307F
:101D9200AB05FF30AC050030AD052B08B4002C08B4
:101DA200B5002D08B600B7018E30B802B81FDA2E82
:101DB200DB2E002F3808803A8F3E0318E12EE22EE8
:101DC200ED2E0030AE000030AD000030AC0000302F
:101DD200AB003D2F3D2FED2E01300310B70CB60C9A
:101DE200B50CB40CFF3E031DEE2E0130AF002F08E0
:101DF200B807031DFD2EFE2EED2E242F242F1830A2
:101E02003802031C052F062F1D2F0030AE000030B4
:101E1200AD000030AC000030AB003D2F3D2F1D2F38
:101E22000130AF000310B40DB50DB60DB70DAF0BF9
:101E3200132F0130B8021D2FB808031D212F222FA6
:101E4200112F242F242F3308031D282F342FB409D8
:101E5200B509B609B709B40A0319B50A0319B60ACE
:101E62000319B70A342F3708AE003608AD0035081B
:101E7200AC003408AB003D2F080083120313A3000B
:101E8200831603130812881208138813831203138C
:101E920088102308031D4E2F502F8814502F063010
:101EA200A100A10B522F6400831203130811063004
:101EB200A100A10B5A2F640083120313881120087A
:101EC200A1002108A400240E0139A100210C03184D
:101ED2006B2F6F2F831203130816722F83120313B3
:101EE2000812240EA100210C0139A200220C0318B1
:101EF2007B2F7F2F831203138816822F83120313E3
:101F02008812240EA100A10C210C0139A200220C7E
:101F120003188C2F902F831203130817932F831209
:101F220003130813240D240D0139A100210C0318F9
:101F32009B2F9F2F831203138817A22F8312031341
:101F420088130630A100A10BA42F6400831203138F
:101F520088150630A100A10BAC2F64008312031375
:101F6200881124080139A100210C0318B92FBD2FB3
:101F7200831203130816C02F831203130812240CB2
:101F82000139A100210C0318C72FCB2F8312031391
:101F92008816CE2F831203138812240CA100210C61
:101FA2000139A200220C0318D72FDB2F831203134F
:101FB2000817DE2F831203130813240CA100A10CAF
:101FC200210C0139A200220C0318E82FEC2F8312F6
:101FD20003138817EF2F8312031388130630A1000F
:101FE200A10BF12F64008312031388150630A100A0
:0E1FF200A10BF92F640083120313881108005D
:02400E00E220AE
:00000001FF
