:060000000A128A11122809
:10000800FE00030883120313B5000408B6000A08AB
:10001800B7007F08B8000A128A1504280A168A1140
:100028007C2B00308A000408840A820700346E346E
:10003800683469346534743464346F343A34203441
:1000480000346C34753478343A34203400348316F0
:100058000313CE010314CE0D00300A168A1186242C
:100068000A128A110B300A168A11DD230A128A1124
:1000780083160313CE010314CE0D06300A168A1117
:1000880086240A128A11831603134A080A168A114B
:1000980035260A128A11831603134C080A168A1188
:1000A80035260A128A118316031344080A168A1180
:1000B80035260A128A118316031347080A168A116D
:1000C80035260A128A112E300A168A1135260A1286
:1000D8008A118316031345080A168A1135260A124F
:1000E8008A118316031348080A168A1135260A123C
:1000F8008A118316031348080A168A1135260A122C
:100108008A112C3083120313B9000130BA000A1681
:100118008A1102240A128A11831603132008EB009D
:100128002108EC002208ED000030E8008030E900EA
:100138003F30EA000A128A15BA250A128A11831674
:1001480003136808D4006908D5006A08D6000A12A3
:100158008A156B210A128A11831603135508A40104
:10016800A4075408A301A307E830D0000330D10046
:100178002408D301D3072308D201D2070A168A110B
:1001880085270A128A11831603135008303EEE00A1
:100198006E08CA006430D0000030D10024088312F1
:1001A8000313BC01BC07831603132308831203132C
:1001B800BB01BB07E830B9000330BA000A128A1540
:1001C8005D200A128A11831203133A088316031357
:1001D800D301D30783120313390883160313D201FB
:1001E800D2070A168A1185270A128A118316031361
:1001F8005008303EEE006E08CC000A30D0000030C7
:10020800D100240883120313BC01BC07831603130F
:10021800230883120313BB01BB07E830B90003307E
:10022800BA000A128A155D200A128A118312031372
:100238003A08BC01BC073908BB01BB076430B900E8
:100248000030BA000A128A155D200A128A11831238
:1002580003133A0883160313D301D3078312031336
:10026800390883160313D201D2070A168A11852783
:100278000A128A11831603135008303EEE006E08E6
:10028800C400240883120313BC01BC07831603139C
:10029800230883120313BB01BB07E830B9000330FE
:1002A800BA000A128A155D200A128A1183120313F2
:1002B8003A08BC01BC073908BB01BB076430B90068
:1002C8000030BA000A128A155D200A128A118312B8
:1002D80003133A0883160317A801A8078312031308
:1002E800390883160317A701A7070A3083120313D7
:1002F800B9000030BA0083160317280883120313C5
:10030800BC01BC0783160317270883120313BB011C
:10031800BB070A128A155D200A128A118312031379
:100328003908303E83160313EE006E08C70000300C
:10033800B5000030B6003608803AFF0080307F02F2
:10034800031DA82902303502031CAB29AC29AE29AC
:10035800632A632A831603132408E301E3072308A7
:10036800E201E2070A168A119C250A128A118316ED
:1003780003136208D1006308D2006408D3000A1688
:100388008A110A230A128A11831603135108EB00F3
:100398005208EC005308ED002008E8002108E900A5
:1003A8002208EA000A128A1181240A128A11831685
:1003B80003136808831603179A0083160313690842
:1003C800831603179B00831603136A088316031703
:1003D8009C000030970020309800413099000A12A4
:1003E8008A159B230A128A11831603171708831686
:1003F8000313D40083160317180883160313D500B4
:1004080083160317190883160313D6000A128A15D0
:100418006B210A128A11831603135508A601A60731
:100428005408A501A5070A3083120313B900003048
:10043800BA0083160313260883120313BC01BC07F2
:1004480083160313250883120313BB01BB070A1283
:100458008A155D200A128A11831203133908303E67
:1004680083160313EE006E08C5000A30D000003072
:10047800D1002608D301D3072508D201D2070A16CE
:100488008A1185270A128A11831603135008303EF1
:10049800EE006E08C8000130B5070318B60A003030
:1004A800B6073608803AFF0080307F02031D5E2AB7
:1004B80002303502031C612A622AAE29632A080029
:1004C800831203139F14682A9F186B2A6C2A682AC0
:1004D8006D2A1E0883160313EE00EF016E088312BF
:1004E8000313D400831603136F0883120313D50074
:1004F80008300310D40DD50DFF3E031D7D2AC830EA
:10050800B9000030BA000A168A1102240A128A11A8
:10051800831603131E08831203135407D4005508C7
:100528000318550AD500C03083160313E8007F303E
:10053800E9004430EA00831203135508BA01BA07E8
:100548005408B901B907F430BB000130BC000A16E1
:100558008A115E250A128A11831203133A08831638
:100568000313E301E3078312031339088316031304
:10057800E201E2070A168A119C250A128A118316DB
:1005880003136208EB006308EC006408ED000A122C
:100598008A15BA250A128A1183160313680883126A
:1005A8000313BE0083160313690883120313BF00E5
:1005B800831603136A0883120313C0003E088316C8
:1005C8000313EB00831203133F0883160313EC0095
:1005D80083120313400883160313ED000030E8006C
:1005E8008030E9003F30EA000A128A15BA250A125B
:1005F8008A11831603136808D4006908D5006A08AD
:10060800D6000A128A156B210A128A11831603135F
:10061800550883120313C201C20783160313540833
:1006280083120313C101C1070A3083160313D000D4
:100638000030D10083120313420883160313D30139
:10064800D30783120313410883160313D201D20779
:100658000A168A1185270A128A118316031350086D
:10066800303EEE006E0883120313D0000A30B90042
:100678000030BA004208BC01BC074108BB01BB07F7
:100688000A128A155D200A128A1183120313390887
:10069800303E83160313EE006E0883120313D10055
:1006A800031000300318013083160313CE00003006
:1006B8000A168A1186240A128A1101300A168A112A
:1006C800DD230A128A110310003003180130831643
:1006D8000313CE0008300A168A1186240A128A11DA
:1006E8008312031350080A168A1135260A128A1132
:1006F8008312031351080A168A1135260A128A1121
:100708002E300A168A1135260A128A1100308312F1
:100718000313C5000030C6004608803AFF00803049
:100728007F02031D992B02304502031C9C2B9D2B35
:100738009F2B702C702C831203134208831603130B
:10074800E301E30783120313410883160313E2014D
:10075800E2070A168A119C250A128A1183160313C6
:100768006208D1006308D2006408D3000A168A110F
:100778000A230A128A11831603135108EB00520840
:10078800EC005308ED00831203133E08831603138D
:10079800E800831203133F0883160313E90083124A
:1007A8000313400883160313EA000A128A118124EE
:1007B8000A128A11831603136808831603179A000E
:1007C800831603136908831603179B008316031304
:1007D8006A08831603179C000030970020309800A1
:1007E800413099000A128A159B230A128A1183162E
:1007F8000317170883160313D40083160317180862
:1008080083160313D50083160317190883160313D9
:10081800D6000A128A156B210A128A11831603134D
:10082800550883120313C401C4078316031354081D
:1008380083120313C301C3070A3083160313D000BE
:100848000030D10083120313440883160313D30125
:10085800D30783120313430883160313D201D20765
:100868000A168A1185270A128A118316031350085B
:10087800303EEE006E0883120313CC000A30B90034
:100888000030BA004408BC01BC074308BB01BB07E1
:100898000A128A155D200A128A1183120313390875
:1008A800303E83160313EE006E0883120313CE0046
:1008B8000130C5070318C60A0030C6074608803A43
:1008C800FF0080307F02031D6B2C02304502031CA1
:1008D8006E2C6F2C9F2B702C831203134C080A1656
:1008E8008A1135260A128A11831203134E080A1632
:1008F8008A1135260A128A1108008316031368081C
:1009080083160317900083160313690883160317C9
:100918009100831603136A088316031792000310C5
:10092800110D120D930013089600831603136B081C
:10093800831603179000831603136C088316031796
:100948009100831603136D08831603179200031092
:10095800110D120D9300130895001608031DB52CF0
:10096800C62C150816020318BA2CBB2CD02C16035B
:10097800FF3A1507900019301002031CC42CC52C2F
:10098800D02CC62C831603136B08E8006C08E9000A
:100998006D08EA00272E272E831603171508031D56
:1009A800D62CE62C160815020318DB2CDC2CE72CB9
:1009B8001503FF3A1607900019301002031CE52CA6
:1009C800E62CE72C272E063090001008940083169A
:1009D8000313EA1FF02CF12CF42C83160317941739
:1009E8000313ED1FF82CF92CFC2C8316031714178E
:1009F8000313E917FF30E805FF30E9050030EA0581
:100A0800EC17FF30EB05FF30EC050030ED058316E1
:100A18000317150816020318122D132D4C2D142D2B
:100A28000130031083160313EB0DEC0DED0DFF3EA3
:100A3800031D152D01308316031795021508160698
:100A48000319272D282D442D013094021408073945
:100A5800031D2F2D302D142D442D442D442D0130F0
:100A6800031083160313EA0CE90CE80CFF3E031D80
:100A7800342D013083160317900010089607442D73
:100A880016081506031D492D4A2D332D8B2D8B2D48
:100A9800160815020318512D522D8B2D532D013098
:100AA800031083160313E80DE90DEA0DFF3E031D3D
:100AB800542D0130831603179602150816060319DC
:100AC800662D672D832D0130940214080739031D04
:100AD8006E2D6F2D532D832D832D832D0130031003
:100AE80083160313ED0CEC0CEB0CFF3E031D732D6A
:100AF800013083160317900010089507832D1608F8
:100B08001506031D882D892D722D8B2D8B2D941F75
:100B18008E2D8F2DA22DFF3083160313E806FF308C
:100B2800E906FF30EA060130E80700300318013013
:100B3800E907003003180130EA07A22D83160317CE
:100B4800141FA72DA82DBB2DFF3083160313EB060A
:100B5800FF30EC06FF30ED060130EB0700300318DC
:100B68000130EC07003003180130ED07BB2D0310EE
:100B780000300318013083160317940083160313FB
:100B88006808EB07690803110318690A0319CD2DD2
:100B9800EC076A08031103186A0A0319D42DED0734
:100BA800ED1FD72DD82DEE2DFF30EB06FF30EC06CC
:100BB800FF30ED060130EB07003003180130EC0779
:100BC800003003180130ED0783160317940103144E
:100BD800940DEE2D03136B0883120313B9008316CB
:100BE80003136C0883120313BA00831603136D08EA
:100BF80083120313BB00831603171608900010080E
:100C080083120313BC0083160317140891001108FC
:100C180083120313BD000A128A116D270A128A1162
:100C280083120313390883160313E800831203138E
:100C38003A0883160313E900831203133B0883164B
:100C48000313EA00272E08008316031320088316CF
:100C580003179A00831603132108831603179B00B2
:100C6800831603132208831603179C00003097008D
:100C780020309800413099000A128A159B230A12E5
:100C88008A1183160317170883160313D4008316D3
:100C98000317180883160313D500831603171908BA
:100CA80083160313D6000A128A156B210A128A11B9
:100CB800831603135508C001C0075408BF01BF07B6
:100CC800E830D0000330D1004008D301D3073F08F3
:100CD800D201D2070A168A1185270A128A118316A9
:100CE80003135008EE006E08CB006430D0000030CB
:100CF800D100400883120313BC01BC0783160313F9
:100D08003F0883120313BB01BB07E830B900033067
:100D1800BA000A128A155D200A128A118312031377
:100D28003A0883160313D301D30783120313390830
:100D380083160313D201D2070A168A1185270A12CD
:100D48008A11831603135008EE006E08CD000A308E
:100D5800D0000030D100400883120313BC01BC0747
:100D6800831603133F0883120313BB01BB07E83044
:100D7800B9000330BA000A128A155D200A128A11D6
:100D8800831203133A08BC01BC073908BB01BB072F
:100D98006430B9000030BA000A128A155D200A12C0
:100DA8008A11831203133A0883160313D301D30756
:100DB80083120313390883160313D201D2070A16C4
:100DC8008A1185270A128A11831603135008EE0028
:100DD8006E08C600400883120313BC01BC078316C3
:100DE80003133F0883120313BB01BB07E830B900A4
:100DF8000330BA000A128A155D200A128A1183127A
:100E080003133A08BC01BC073908BB01BB076430AF
:100E1800B9000030BA000A128A155D200A128A1138
:100E2800831203133A0883160317A801A80783122D
:100E38000313390883160317A701A7070A3083127B
:100E48000313B9000030BA00831603172808831269
:100E58000313BC01BC078316031727088312031367
:100E6800BB01BB070A128A155D200A128A11831278
:100E78000313390883160313EE006E08C9004B08E4
:100E88000A168A11FE220A128A11831603134D08C4
:100E98000A168A11FE220A128A11831603134608BB
:100EA8000A168A11FE220A128A11831603134908A8
:100EB8000A168A11FE220A128A11C83083120313F5
:100EC800B9000030BA000A168A1102240A128A11DF
:100ED8000800831203133C08031D732F7B2F3B0864
:100EE8003A043904031D792F7A2F952F7B2F003070
:100EF800B9000030BA000030BB00FD2FFD2F952F40
:100F0800013083160313CE004E0883120313BC0767
:100F180001300310BB0CBA0CB90CFF3E031D8D2F1A
:100F2800952FFE303B05031D9A2F9B2F842FB72F3B
:100F3800B72F013083160313CE004E088312031314
:100F4800BC070130B907003003180130BA07003078
:100F580003180130BB0701300310BB0CBA0CB90CE5
:100F6800FF3E031DB02FFF303B05031DBC2FBD2FD7
:100F78009D2FCA2FCA2F0130BC0201300310B90DB2
:100F8800BA0DBB0DFF3E031DC22FCA2FBA1FCD2FAE
:100F9800CE2FBF2F3C18D12FD22FD82FFF30B90515
:100FA8007F30BA05FF30BB050310BC0C3C08831624
:100FB8000313CE00CF01D00110300310CE0DCF0D9A
:100FC800D00DFF3E031DE12F4E0883120313B90411
:100FD800831603134F0883120313BA0483160313EB
:100FE800500883120313BB043D08031DFC2FFD2F7B
:080FF800BB1708000800080007
:10100800831603138C1E09280A2829288312031320
:101018008C1E0F28102829281A08B4005208AA3E46
:1010280084003408831780000130B4003408D207E4
:101038005208073A031D21282228292803100030C6
:1010480003180130D200292829280B1D2C282D2807
:1010580051288B1E3028312851280B1183308312D8
:101068008100013083160313A7070318A80A00306C
:10107800A807FA3027062804031D432844285128C6
:101088000A168A1193260A128A150030831603134A
:10109800A7000030A8005128512883123808FF0003
:1010A80037088A003608840035088300FE0E7E0E55
:1010B8000900031000300318013083160313CF0012
:1010C80083120313BC1F69286A287528BB09BC0949
:1010D800BB0A0319BC0A83160313CF010314CF0DEF
:1010E80075288312BA1F79287A288028B909BA097D
:1010F800B90A0319BA0A80283A0839040319852855
:101108008628C62883160313CE010314CE0D9B2808
:10111800013083120310B90DBA0DFF3E031D8E284E
:101128000130BD003D0883160313CE079B288312A8
:101138000313BA1FA028A1288C28A328A328831248
:101148003A083C02031DAA2839083B02031CAD28B3
:10115800AE28B5283908BB023A08031CBC03BC02F8
:10116800B52801300310BA0CB90CFF3E031DB62890
:10117800013083160313CE02031DC328C428A328F5
:10118800C628C628831603134F08031DCC28D42865
:1011980083120313BB09BC09BB0A0319BC0AD42870
:1011A80083123C08BA01BA073B08B901B907DC2821
:1011B800080083160317880189010A128A15DC269C
:1011C8000A128A15831603139A01831603178715C3
:1011D80081308316031399002030980090308312D1
:1011E80003139800831603131812831203131A08A3
:1011F80083160317A900290883160313C3008C1646
:101208000B178B1783120313870183160313871099
:1012180007110C3083120313970001309200121546
:10122800FF308316031392008316031708158316DD
:1012380003139F121F12831203139F179F1B252945
:101248002929831203131F172C29831203131F1331
:10125800831603139F17831203139F121F129F15E0
:101268001F111F1483160313811281110116011116
:101278000110811483308312031381008B16E83028
:10128800B9000330BA000A168A1102240A128A1514
:101298000A168A1118230A128A1552290A128A1163
:1012A8002B200A128A150A128A1164220A128A1538
:1012B8000A128A1128260A128A150A128A15A524E2
:1012C8000A128A15522952290A128A1112288316DB
:1012D80003135408D8005508D9005608DA0003103B
:1012E800590D5A0DDB005B08E100E108031D7D295B
:1012F8007E2988290030D7000030D6000030D5007C
:101308000030D400102A102A5408D8005508D900F3
:101318005608DA0017300310DA0CD90CD80CFF3E47
:10132800031D8F295808DB005B08DC00D517FF3048
:10133800D405FF30D5050030D6055408DD00550822
:10134800DE005608DF00E0018E30E102E11FAD2922
:10135800AE29D3296108803A8F3E0318B429B529EC
:10136800C0290030D7000030D6000030D50000304A
:10137800D400102A102AC02901300310E00CDF0C19
:10138800DE0CDD0CFF3E031DC1290130D8005808D2
:10139800E107031DD029D129C029F729F7291830D9
:1013A8006102031CD829D929F0290030D700003060
:1013B800D6000030D5000030D400102A102AF029B9
:1013C8000130D8000310DD0DDE0DDF0DE00DD80B68
:1013D800E6290130E102F029E108031DF429F52985
:1013E800E429F729F7295C08031DFB29072ADD09E9
:1013F800DE09DF09E009DD0A0319DE0A0319DF0A3D
:101408000319E00A072A6008D7005F08D6005E08BB
:10141800D5005D08D400102A080083120313BC000D
:1014280083160313081288120813881383120313F0
:1014380088103C08031D212A232A8814232A0630F1
:10144800BA00BA0B252A6400831203130811063068
:10145800BA00BA0B2D2A64008312031388113908C5
:10146800BA003A08BD003D0E0139BA003A0C03181B
:101478003E2A422A831203130816452A83120313AD
:1014880008123D0EBA003A0C0139BB003B0C031898
:101498004E2A522A831203138816552A83120313DD
:1014A80088123D0EBA00BA0C3A0C0139BB003B0C4D
:1014B80003185F2A632A831203130817662A831204
:1014C800031308133D0D3D0D0139BA003A0C0318FA
:1014D8006E2A722A831203138817752A831203133C
:1014E80088130630BA00BA0B772A640083120313F4
:1014F80088150630BA00BA0B7F2A640083120313DA
:1015080088113D080139BA003A0C03188C2A902A30
:10151800831203130816932A8312031308123D0C2F
:101528000139BA003A0C03189A2A9E2A8312031327
:101538008816A12A8312031388123D0CBA003A0CAC
:101548000139BB003B0C0318AA2AAE2A83120313E5
:101558000817B12A8312031308133D0CBA00BA0CFA
:101568003A0C0139BB003B0C0318BB2ABF2A831273
:1015780003138817C22A8312031388130630BA008C
:10158800BA0BC42A64008312031388150630BA0004
:10159800BA0BCC2A64008312031388110800831243
:1015A80003132308A6002408A7002508A800031091
:1015B800270D280DA9002908AE00AE08031DE52A4D
:1015C800E62AEE2A0030A0000030A1000030A20078
:1015D8009A2B9A2B2008A6002108A7002208A80009
:1015E8000310270D280DA9002908AF00AF08031D17
:1015F800FE2AFF2A072B0030A0000030A10000308F
:10160800A2009A2B9A2B0030AB000030AC000030BF
:10161800AD0089302F07A6002608AE022308A600D1
:101628002408A7002508A80010300310A80CA70C50
:10163800A60CFF3E031D192B2608A9002908AF0098
:101648002008A6002108A7002208A80010300310CF
:10165800A80CA70CA60CFF3E031D2B2B2608A900DF
:101668002908AF068030A6002608AF05A417FF306A
:10167800A305FF30A4050030A505A117FF30A0057C
:10168800FF30A1050030A2051830A6002608AA00E0
:101698004D2B01300310AB0DAC0DAD0DFF3E031DFE
:1016A8004E2B22082502031D5F2B21082402031D4F
:1016B8005F2B20082302031C622B632B6F2B20084F
:1016C800A3022108031C210FA4022208031C220ADA
:1016D800A5022B146F2B01300310A30DA40DA50D2B
:1016E800FF3E031D702B0130AA02031D7C2B7D2BAE
:1016F8004D2B7E2B2B08F0002C08F1002D08F20052
:101708002E08A6002608F3002F08A7002708F400D3
:101718000A168A110A270A128A15700883120313F7
:10172800A0007108A1007208A2009A2B0800831675
:10173800031717089D0018089E0019089F0003103A
:101748001E0D1F0DA0002008A100A108031DAD2B30
:10175800AE2BB62B0030970000309800003099006F
:10176800A42CA42C1A089D001B089E001C089F008E
:1017780003101E0D1F0DA0002008A600A608031DBB
:10178800C62BC72BCF2B00309700003098000030B5
:101798009900A42CA42C26087B3E9D001D08A107B7
:1017A80017089D0018089E0019089F0010300310A4
:1017B8009F0C9E0C9D0CFF3E031DDB2B1D08A000FB
:1017C8002008A6001A089D001B089E001C089F0000
:1017D800103003109F0C9E0C9D0CFF3E031DED2B3B
:1017E8001D08A0002008A60680309D001D08A6053B
:1017F80098179B17FF309A05FF309B0500309C0512
:101808000030A2000030A3000030A40007309D0083
:101818001D08A5000F2C171C122C132C242C1A0899
:10182800A2071B08031103181B0A03191C2CA30782
:101838001C08031103181C0A0319232CA407242CC1
:1018480001300310990C980C970CFF3E031D252CB2
:10185800013003109A0D9B0D9C0DFF3E031D2D2C8E
:101868000130A502031D392C3A2C0F2C3B2C0930D2
:101878009D001D08A500402C171C432C442C552CFA
:101888001A08A2071B08031103181B0A03194D2C79
:10189800A3071C08031103181C0A0319542CA407D6
:1018A800552C01300310990C980C970CFF3E031D22
:1018B800562C01300310A40CA30CA20CFF3E031DF0
:1018C8005E2C0130A502031D6A2C6B2C402C6C2C5D
:1018D800220883120313B9008316031723088312FF
:1018E8000313BA0083160317240883120313BB00DB
:1018F8008316031721089D001D0883120313BC00DB
:101908008316031726089E001E0883120313BD00C2
:101918000A128A116D270A128A15831203133908CD
:10192800831603179700831203133A0883160317C5
:101938009800831203133B08831603179900A42CFD
:101948000800003083160313E8002030E900413016
:10195800EA00831603172A080A168A1121250A1293
:101968008A15831603135108EB005208EC0053083C
:10197800ED000A128A15BA250A128A15831603136E
:10198800680883160317C0008316031369088316B3
:101998000317C100831603136A0883160317C200CE
:1019A800003083160313E8002030E9004130EA00D4
:1019B800831603172B080A168A1121250A128A157D
:1019C800831603135108EB005208EC005308ED008E
:1019D8000A128A15BA250A128A158316031368088B
:1019E80083160317BD0083160313690883160317AC
:1019F800BE00831603136A0883160317BF0000305E
:101A080083160313E8002030E9004130EA0083160A
:101A180003172C080A168A1121250A128A1583161B
:101A280003135108EB005208EC005308ED000A12AA
:101A38008A15BA250A128A158316031368088316AD
:101A48000317BA0083160313690883160317BB002C
:101A5800831603136A0883160317BC002D089A001F
:101A68009B011A0883120313B900831603171B0876
:101A780083120313BA00E830BB000330BC000A1617
:101A88008A115E250A128A158312031339088316F0
:101A980003179C00831203133A08831603179D004B
:101AA8002E089E009F011E0883120313B900831697
:101AB80003171F0883120313BA006430BB000030F9
:101AC800BC000A168A115E250A128A1583120313AE
:101AD8003908831603171C07A000831203133A085A
:101AE80003183A0A831603171D07A1002F08A2003E
:101AF800A301220883120313B900831603172308CE
:101B080083120313BA000A30BB000030BC000A1667
:101B18008A115E250A128A1583120313390883165F
:101B280003172007A400831203133A0803183A0A7C
:101B3800831603172107A50030082407831603130B
:101B4800B3000030031801308316031725078316E6
:101B58000313B400323083120313B9000030BA0003
:101B68000A168A1102240A128A150800831603131A
:101B78006B08831603179000831603136C088316EB
:101B880003179100831603136D0883160317920039
:101B98000310110D120D9300130898009808031DE7
:101BA800D62DD72DE12D003083160313E800003021
:101BB800E9000030EA00DB2EDB2E031368088316E9
:101BC80003179000831603136908831603179100FF
:101BD800831603136A088316031792000310110D66
:101BE800120D9300130899009908031DFC2DFD2D73
:101BF800072E003083160313E8000030E900003098
:101C0800EA00DB2EDB2E0030831603179500003028
:101C18009600003097008930190790001008980244
:101C2800831603136B088316031790008316031398
:101C38006C08831603179100831603136D08831627
:101C48000317920010300310920C910C900CFF3E79
:101C5800031D272E100893001308990083160313F9
:101C68006808831603179000831603136908831600
:101C780003179100831603136A088316031792004B
:101C880010300310920C910C900CFF3E031D452E52
:101C980010089300130899068030900010089905E1
:101CA80083160313EC17FF30EB05FF30EC0500300B
:101CB800ED05E917FF30E805FF30E9050030EA05D2
:101CC8001830831603179000100894006B2E01300B
:101CD8000310950D960D970DFF3E031D6C2E831670
:101CE80003136A086D02031D7F2E69086C02031D29
:101CF8007F2E68086B02031C822E832E912E6808A3
:101D0800EB026908031C690FEC026A08031C6A0AE3
:101D1800ED02831603171514912E013003100313D7
:101D2800EB0DEC0DED0DFF3E031D922E01308316D9
:101D380003179402031DA12EA22E6B2EA32E1508A5
:101D480083120313B90083160317160883120313AB
:101D5800BA0083160317170883120313BB008316F0
:101D6800031718089000100883120313BC00831689
:101D7800031719089100110883120313BD000A12F2
:101D88008A116D270A128A158312031339088316DC
:101D98000313E800831203133A0883160313E900B8
:101DA800831203133B0883160313EA00DB2E080093
:101DB8008316031388118810081108128812081353
:101DC8008813831203138811881008118230831630
:101DD8000313CF00DD30CE00CE0BF02ECF0BF02E4C
:101DE800F52E303083160313CE004E0883120313EA
:101DF800B90000300A128A1511220A128A154130D8
:101E080083160313CF00EE30CE00CE0B092FCF0B75
:101E1800092F6400303083160313CE004E08831256
:101E28000313B90000300A128A1511220A128A1502
:101E3800413083160313CF00EE30CE00CE0B222F95
:101E4800CF0B222F6400323083160313CE004E08C6
:101E580083120313B90000300A128A1511220A12DC
:101E68008A15823083160313CF00DD30CE00CE0BE7
:101E78003B2FCF0B3B2F402F823083160313CF000D
:101E8800DD30CE00CE0B462FCF0B462F4B2F8230A6
:101E980083160313CF00DD30CE00CE0B512FCF0BAE
:101EA800512F562F582F582F0A168A11B6240A1266
:101EB8008A150038031D612F622F582F632F283091
:101EC80083160313CE004E0883120313B9000030A3
:101ED8000A128A1511220A128A15732F732F0A16ED
:101EE8008A11B6240A128A150038031D7C2F7D2F0B
:101EF800732F7E2F083083160313CE004E088312EB
:101F08000313B90000300A128A1511220A128A1521
:101F18008E2F8E2F0A168A11B6240A128A150038B7
:101F2800031D972F982F8E2F992F0C30831603138C
:101F3800CE004E0883120313B90000300A128A1526
:101F480011220A128A15A92FA92F0A168A11B62456
:101F58000A128A150038031DB22FB32FA92FB42FE8
:101F680083120313B9010314B90D00300A128A153C
:101F780011220A128A15C12FC12F0A168A11B624F6
:101F88000A128A150038031DCA2FCB2FC12FCC2F58
:101F9800043083160313CE004E0883120313B900CE
:101FA80000300A128A1511220A128A15DC2FDC2F3A
:101FB8000A168A11B6240A128A150038031DE52F5D
:101FC800E62FDC2FE72F83120313B9010314B90D91
:101FD80000300A128A1511220A128A15F42FF42FDA
:101FE8000A168A11B6240A128A150038031DFD2F15
:081FF800FE2FF42FFF2F08005B
:1025EC0064008001840A0406031900340406F72AE7
:1025FC0083120313B90039089900042B0C1E072B06
:10260C00082B042B092B08008316031353085204C0
:10261C0051040319122B132B162B8030D306162BB7
:10262C00172B08000A168A11BC230A168A11463089
:10263C000A168A11E9240A168A1110300A168A1110
:10264C00E9240A168A110A168A1148230A168A11D5
:10265C0008008316031307120A128A11FF270A16A1
:10266C008A118316031387150A128A11FF270A167B
:10267C008A118316031307160A128A11FF270A16EA
:10268C008A1108008316031307120A128A11FE27F7
:10269C000A168A118316031387150A128A11FE274C
:1026AC000A168A118316031307160A128A11FE27BB
:1026BC000A168A11080083120313BA0003100030A3
:1026CC0003180130B9007F303A0203186E2B6F2BC0
:1026DC00792B20303A02031C742B752B792BB90102
:1026EC000314B90D792B390C7B2B0800D6018313FD
:1026FC003E30840056300A168A11F6220A168A11C8
:10270C00A0308400CE300A168A11F6220A168A11DD
:10271C008317AA308400C3300A168A11F6220A16CF
:10272C008A1183010A128A15DD28831603130716F2
:10273C000A128A11FF270A168A11831603138715AA
:10274C000A128A11FF270A168A118316031307121D
:10275C000A128A11FF270A168A118316031387118E
:10276C000A128A11FF270A168A110800831603130E
:10277C0007160A128A11FE270A168A1183160313EA
:10278C0087150A128A11FE270A168A11831603135B
:10279C0007120A128A11FE270A168A1183160313CE
:1027AC0087110A128A11FE270A168A11080083164D
:1027BC000313D500F42B550884000A128A11152036
:1027CC000A168A110A168A1135260A168A11013040
:1027DC0083160313D4005408D507F42B5508840032
:1027EC000A128A1115200A168A110038031DFF2BB4
:1027FC00002CE12B012C0800003083120313BC00C9
:10280C000030BD001A2CF93083120313BB00640096
:10281C00BB0B0D2C112C6400013083120313BC076D
:10282C000318BD0A0030BD073D08803ABB003A08CA
:10283C00803A3B02031D242C39083C02031C272C34
:10284C00282C092C292C0800031000300318013007
:10285C00FD00F91F322C332C3C2CF809F909F80A2D
:10286C000319F90AFD010314FD0D3C2C7808F00046
:10287C007908F100F2018E30FB007B08F3007D0833
:10288C00FC007C08F4000A168A110A270A168A1121
:10289C007008F8007108F9007208FA00552C08004D
:1028AC00F1000830F0007008F2006D2CF11F5F2C65
:1028BC00602C642C831603130716672C83160313E2
:1028CC00071287150310F10D87110130F202F2087F
:1028DC00031D712C722C5C2C8316031307168715A1
:1028EC000A128A11FF270A168A1183120313561033
:1028FC00071E812C5614831603138711852C080090
:10290C0083160313D0004E08031D8D2C922C4030DF
:10291C00CF004F08D100972C031000300318013062
:10292C00D1005008CF004F08D10751088038CF0094
:10293C004F0883120313B90000300A128A151122B2
:10294C000A168A11AA2CAA2C0A168A11B6240A165F
:10295C008A110038031DB32CB42CAA2CB52C0800FA
:10296C008316031308168816081788178312031387
:10297C00081588100630B900B90BC22C64008312FC
:10298C00031388150630B900B90BCA2C640000304B
:10299C0083120313881B0130B9003908BA0088115F
:1029AC000630B900B90BD82C6400831203138815B8
:1029BC000630B900B90BE02C6400831203138811A4
:1029CC003A08E82C080083120313BA000830B90047
:1029DC003908BB00082DBA1FF42CF52CF92C8316E2
:1029EC0003130716FC2C8316031307128715031009
:1029FC0083120313BA0D831603138711013083124C
:102A0C000313BB02BB08031D0C2D0D2DF12C8316DB
:102A1C000313071687150A128A11FE270A168A1144
:102A2C00831203135610071E1C2D56148316031302
:102A3C008711202D080083160313D8005808D400E2
:102A4C00D501D601540883120313B900831603135E
:102A5C00550883120313BA00831603135608831206
:102A6C000313BB008E3083160313D7005708831251
:102A7C000313BC000310003003180130BD000A1210
:102A8C008A116D270A168A118312031339088316CB
:102A9C000313D100831203133A0883160313D200D5
:102AAC00831203133B0883160313D3005D2D080018
:102ABC00003083160313CE000030CF00652D831237
:102ACC00391C692D6A2D762D3B0883160313CE070E
:102ADC000318CF0A831203133C0883160313CF0782
:102AEC00013083120310BB0DBC0DFF3E031D782D6E
:102AFC0001300310BA0CB90CFF3E031D7F2D3A08B0
:102B0C003904031D8A2D8B2D652D8C2D83160313F3
:102B1C004F0883120313BA01BA07831603134E0826
:102B2C0083120313B901B9079B2D08000310003061
:102B3C000318013083160313E700E31FA62DA72DFE
:102B4C00B02DE209E309E20A0319E30AE7010314D1
:102B5C00E70DB02D620883120313B900831603131B
:102B6C00630883120313BA00BB018E308316031360
:102B7C00E500650883120313BC0083160313670872
:102B8C00E600660883120313BD000A128A116D2732
:102B9C000A168A1183120313390883160313E200F1
:102BAC00831203133A0883160313E30083120313EF
:102BBC003B0883160313E400E32D0800F100031017
:102BCC00003003180130F2008316031307160310AC
:102BDC00003003180130F30008307302031CF72D8A
:102BEC00F82DFA2D212E212E0310F20DFD2D83161A
:102BFC000313871583120313871D052E062EFD2D37
:102C0C00072E0A128A11FF270A168A118312031340
:102C1C00071E112E122E132E7214831603138711F6
:102C2C000130F0007008F30708307302031C1F2EEC
:102C3C00202EFA2D212E7108031D252E272E07126A
:102C4C00282E071687150A128A11FF270A168A11D1
:102C5C0083160313871107167208342E0800831687
:102C6C000313D300882E83120313B9010314B90D77
:102C7C0000300A128A1511220A168A11462E462E87
:102C8C000A168A11B6240A168A110038031D4F2E13
:102C9C00502E462E922E922E83160313CE01031421
:102CAC00CE0D00300A168A1186240A168A11922E2D
:102CBC008316031353080A168A1161230A168A1104
:102CCC00031C692E6A2E922E831603135308D2000E
:102CDC00520883120313B90001300A128A1511220B
:102CEC000A168A117A2E7A2E0A168A11B6240A1618
:102CFC008A110038031D832E842E7A2E922E922E4A
:102D0C00922E922E8316031353080A3A0319522E4D
:102D1C00063A0319392E5E2E0800031000300318F2
:102D2C00013083120313B20003100030031801307A
:102D3C00B3000A168A119B230A168A1147300A1609
:102D4C008A1156240A168A1101300A168A11E425B2
:102D5C000A168A1183120313B0003008B300003036
:102D6C000A168A11E4250A168A1183120313B0007D
:102D7C003008B2000A168A112F230A168A11831200
:102D8C0003133308B000B1010830FF000310B00D7D
:102D9C00B10DFF0BCC2E32083007C70000300318E2
:102DAC0001303107C8009A30A0009930A1003F30A3
:102DBC00A2004808F901F9074708F801F8070A16B4
:102DCC008A112A240A168A11780883120313A30085
:102DDC007908A4007A08A5000A128A15D3220A16CB
:102DEC008A1183120313200883160313A000831285
:102DFC000313210883160313A10083120313220863
:102E0C0083160313A20008007308031D0E2F162F40
:102E1C00720871047004031D142F152F2C2F162FFC
:102E2C000030F0000030F1000030F200842F842FCD
:102E3C002C2F0130F5007508F30701300310F20C4C
:102E4C00F10CF00CFF3E031D242F2C2FFE307205CD
:102E5C00031D312F322F1F2F4A2F4A2F0130F5001F
:102E6C007508F3070130F007003003180130F10743
:102E7C00003003180130F20701300310F20CF10C92
:102E8C00F00CFF3E031D432FFF307205031D4F2F27
:102E9C00502F342F5D2F5D2F0130F30201300310C2
:102EAC00F00DF10DF20DFF3E031D552F5D2FF11F9F
:102EBC00602F612F522F7318642F652F6B2FFF30EB
:102ECC00F0057F30F105FF30F2050310F30C7308A9
:102EDC00F500F601F70110300310F50DF60DF70DA6
:102EEC00FF3E031D722F7508F0047608F104770875
:102EFC00F2047408031D832F842FF21708000310AB
:102F0C0000300318013083160313D600D11F8F2F06
:102F1C00902F992FD009D109D00A0319D10AD601C3
:102F2C000314D60D992FD31F9C2F9D2FA62FD2099A
:102F3C00D309D20A0319D30A0130D4005408D60697
:102F4C000030D7000030D800510850040319AF2FBF
:102F5C00B02FEE2FD5010314D50DC02F0130031067
:102F6C00D00DD10DFF3E031DB52F0130D4005408F8
:102F7C00D507C02FD11FC32FC42FB42FC62FC62FD8
:102F8C0001300310D70DD80DFF3E031DC72F51087C
:102F9C005302031DD32F50085202031CD62FD72FD8
:102FAC00DF2F5008D2025108031CD303D30257144D
:102FBC00DF2F01300310D10CD00CFF3E031DE02F8E
:102FCC000130D502031DEB2FEC2FC62FEE2FEE2F69
:102FDC005608031DF22FF82FD709D809D70A031961
:102FEC00D80AF82F5808D101D1075708D001D007BB
:042FFC00FF2F08009B
:02400E00E220AE
:00000001FF
